:10000000020800E4F580E4F539C3E539940574800D
:10001000948050F2E4F538C3E538943274809480CB
:100020005035E4F9E9C39408748094805025743005
:1000300029F8E6F580E53975F008A4240829F8E6E2
:10004000FF1200917F647E001200C6E4FF1200914F
:100050000980D1053880C0053980AE2028081032CB
:1000600055FF10FE15533048442244483000207F8D
:10007000A044C97F4874382828FF28283800FF8505
:10008000D5FDD58DFF0008307FBFDFEFF7FBFDFE0C
:1000900000AD07E4FBFAEDC4131313540124FF92DF
:1000A000B4ED25E0FDC2B61200C2D2B61200C20BFA
:1000B000BB00010AEB64084A70DCC2B51200C2D270
:1000C000B5227F017E00EF1FAC0670011E4C70F65A
:0100D000220D
:10080000787FE4F6D8FD758139020847020003E4D9
:1008100093A3F8E493A34003F68001F208DFF48089
:1008200029E493A3F85407240CC8C333C4540F44D9
:1008300020C8834004F456800146F6DFE4800B01B3
:100840000204081020408090005BE47E019360BCAD
:10085000A3FF543F30E509541FFEE493A360010E4B
:10086000CF54C025E060A840B8E493A3FAE493A372
:10087000F8E493A3C8C582C8CAC583CAF0A3C8C593
:0C08800082C8CAC583CADFE9DEE780BE7B
:00000001FF
