:10000000020800EF6003750B01E50B6401702E30F0
:10001000B10930B00630B20320B3227FE87E03126C
:10002000007FE4F50B20B1037F012220B0037F02A3
:100030002220B2037F032220B3127F042230B10CAE
:1000400030B00930B20630B303750B017F00227562
:100050000800750901E4FF1200038F0A7E00EF64B7
:10006000017002B2A0EF64024E7002B2A1EF64030D
:100070004E7002B2A2EF64044E70DAB2A380D6EFE3
:0E0080001FAC0670011E4C70F622010B010031
:10080000787FE4F6D8FD75810B02084702004FE4BB
:1008100093A3F8E493A34003F68001F208DFF48089
:1008200029E493A3F85407240CC8C333C4540F44D9
:1008300020C8834004F456800146F6DFE4800B01B3
:100840000204081020408090008AE47E019360BC7E
:10085000A3FF543F30E509541FFEE493A360010E4B
:10086000CF54C025E060A840B8E493A3FAE493A372
:10087000F8E493A3C8C582C8CAC583CAF0A3C8C593
:0C08800082C8CAC583CADFE9DEE780BE7B
:00000001FF
