:100000000209C08B1D8A1E891FE4F520ED14F5211D
:10001000F520C3E520940874809480400302009F7B
:10002000E520B40800504D90002EF82828730200F7
:100030004602004A02004E02005202005602005ED2
:1000400002006602006ED2A4800ED2A48012D2A456
:100050008016D2A4801AC2A4D2A3D2A28016C2A4AF
:10006000D2A3C2A2800EC2A4C2A3D2A28006C2A4FE
:10007000C2A3C2A2C3E5209521FFE49400AB1DAA50
:100080001EA91F8F82F5831208F62408F8E6F58072
:100090007F647E00120306E4F58005200200122230
:1000A000E4F518F519781A7C00FD7BFF7A037911C5
:1000B000FE7F031208D0E4FF12011D8F18EF6401C8
:1000C0007006AD19FF120215E51864027006FF12E2
:1000D00001EA8F19AF187E00EF6403700C0519B5A3
:1000E0001907E4B401037519FFEF64044E7002F5BB
:1000F00019E51975F06484F51AE51975F06484AF93
:10010000F0EF75F00A84F51BEF75F00A8485F01C9A
:100110007B007A00791A7D061200038099EF600354
:10012000752201E5226401702E30B10930B006302D
:10013000B20320B3227FE87E03120306E4F52220F7
:10014000B1037F012220B0037F022220B2037F038C
:100150002220B3127F042230B10C30B00930B20635
:1001600030B3037522017F00228F1FC2A1E4F52066
:10017000C3E520940874809480502EE51F30E70476
:10018000D2A08002C2A0E51F25E0F51F7F017E00FE
:10019000120306D2A17F017E00120306C2A17F01D5
:1001A0007E00120306052080C7228F1FE4F520C3BE
:1001B000E5209408748094805021C2A17F017E00C4
:1001C000120306D2A1E52125E0F52130A002052188
:1001D0007F017E00120306052080D4E51F70051202
:1001E00002D980031202C2AF21228F1DE4F51E1234
:1001F000026412023EAF1D12016912023E12026435
:100200007FA112016912023EE4FF1201AA8F1E12A1
:1002100002A7AF1E228F1D8D1E1202647FA0120145
:100220006912023EAF1D12016912023EAF1E120199
:100230006912023E1202A77F0A7E00020288E4F5DC
:100240001FC2A17F01FE12030630A013051FD3E5D4
:100250001F94647480948040F01202A77F0122C230
:10026000A17F0022D2A07F017E00120306D2A17FCF
:10027000017E00120306C2A07F017E00120306C2A7
:10028000A17F017E00020306E4FDFCC3ED9FEC9E0E
:1002900050147B6E7A00EB1B70011AEB4A70F70D5D
:1002A000BD00010C80E522C2A07F017E0012030682
:1002B000D2A17F017E00120306D2A07F017E000240
:1002C0000306C2A1C2A07F017E00120306D2A17F55
:1002D000017E00120306C2A122C2A1D2A07F017E2C
:1002E00000120306D2A17F017E00120306C2A122E2
:1002F00001220110083F065B4F666D7D077F6F7717
:100300007C395E797100EF1FAC0670011E4C70F6EF
:0403100022000000C7
:10080000E709F608DFFA8046E709F208DFFA803EDA
:1008100088828C83E709F0A3DFFA8032E309F608C7
:10082000DFFA8078E309F208DFFA807088828C832F
:10083000E309F0A3DFFA806489828A83E0A3F608E3
:10084000DFFA805889828A83E0A3F208DFFA804CBD
:1008500080D280FA80C680D4806980F28033801094
:1008600080A680EA809A80A880DA80E280CA8033FD
:1008700089828A83ECFAE493A3C8C582C8CCC58375
:10088000CCF0A3C8C582C8CCC583CCDFE9DEE78045
:100890000D89828A83E493A3F608DFF9ECFAA9F0C4
:1008A000EDFB2289828A83ECFAE0A3C8C582C8CC1A
:1008B000C583CCF0A3C8C582C8CCC583CCDFEADE33
:1008C000E880DB89828A83E493A3F208DFF980CC95
:1008D00088F0EF60010E4E60C388F0ED2402B4048E
:1008E0000050B9F582EB2402B4040050AF23234535
:1008F000822390085073BB010CE58229F582E583C1
:100900003AF583E0225006E92582F8E622BBFE068E
:10091000E92582F8E222E58229F582E5833AF5832A
:03092000E493223B
:1009C000787FE4F6D8FD758122020A070200A0E4D0
:1009D00093A3F8E493A34003F68001F208DFF480C8
:1009E00029E493A3F85407240CC8C333C4540F4418
:1009F00020C8834004F456800146F6DFE4800B01F2
:100A0000020408102040809002F0E47E019360BC54
:100A1000A3FF543F30E509541FFEE493A360010E89
:100A2000CF54C025E060A840B8E493A3FAE493A3B0
:100A3000F8E493A3C8C582C8CAC583CAF0A3C8C5D1
:0C0A400082C8CAC583CADFE9DEE780BEB9
:00000001FF
