:100000000209BA78087C007D007BFF7A0079A77E20
:10001000007F081208D0E4FBFAEA7053EBB4080042
:10002000504D900029F82828730200410200450233
:10003000004902004D020051020059020061020015
:1000400069C2A4800EC2A48012C2A48016C2A48079
:100050001AD2A4C2A3C2A28016D2A4C2A3D2A280E2
:100060000ED2A4D2A3C2A28006D2A4D2A3D2A274DA
:10007000082BF8E6F5807F0A7E007D007C001200E8
:1000800091E4F5800BBB00010AEB64084A708A809A
:10009000858F138E128D118C10781074FF1208F852
:0F00A000EC4D4E4F70F3223F065B4F666D7D07B0
:10080000E709F608DFFA8046E709F208DFFA803EDA
:1008100088828C83E709F0A3DFFA8032E309F608C7
:10082000DFFA8078E309F208DFFA807088828C832F
:10083000E309F0A3DFFA806489828A83E0A3F608E3
:10084000DFFA805889828A83E0A3F208DFFA804CBD
:1008500080D280FA80C680D4806980F28033801094
:1008600080A680EA809A80A880DA80E280CA8033FD
:1008700089828A83ECFAE493A3C8C582C8CCC58375
:10088000CCF0A3C8C582C8CCC583CCDFE9DEE78045
:100890000D89828A83E493A3F608DFF9ECFAA9F0C4
:1008A000EDFB2289828A83ECFAE0A3C8C582C8CC1A
:1008B000C583CCF0A3C8C582C8CCC583CCDFEADE33
:1008C000E880DB89828A83E493A3F208DFF980CC95
:1008D00088F0EF60010E4E60C388F0ED2402B4048E
:1008E0000050B9F582EB2402B4040050AF23234535
:1008F0008223900850737401FF3395E0FEFDFC08DD
:100900000808E6CF2FF618E6CE3EF618E6CD3DF6FF
:0609100018E6CC3CF622C3
:0C09BA00787FE4F6D8FD7581130200037D
:00000001FF
