:020000040800F2
:10000000000400209D010008A5010008A7010008C8
:10001000A9010008AB010008AD01000800000000C4
:10002000000000000000000000000000AF01000818
:10003000B101000800000000B3010008B50100088C
:10004000B7010008B7010008B7010008B7010008B0
:10005000B7010008B7010008B7010008B7010008A0
:10006000B7010008B7010008B7010008B701000890
:10007000B7010008B7010008B7010008B701000880
:10008000B7010008B7010008B7010008B701000870
:10009000B7010008B7010008B7010008B701000860
:1000A000B7010008B7010008B7010008B701000850
:1000B000B7010008B7010008B7010008B701000840
:1000C000B7010008B7010008B7010008B701000830
:1000D000B7010008B7010008B7010008B701000820
:1000E000B7010008B7010008B7010008B701000810
:1000F000B7010008B7010008B7010008B701000800
:10010000B7010008B7010008B7010008B7010008EF
:10011000B7010008B7010008B7010008B7010008DF
:10012000B7010008B7010008B7010008B7010008CF
:10013000B7010008B7010008B7010008B7010008BF
:10014000B7010008B7010008B7010008B7010008AF
:10015000B7010008B7010008B7010008B70100089F
:10016000B7010008B7010008B7010008B70100088F
:10017000B7010008B7010008B7010008B70100087F
:10018000B7010008B7010008DFF80CD000F018F83C
:100190000048004779020008000400200648804714
:1001A00006480047FEE7FEE7FEE7FEE7FEE7FEE75C
:1001B000FEE7FEE7FEE7FEE7ED0100088901000823
:1001C000064C074D06E0E06840F0010394E80700A4
:1001D00098471034AC42F6D3FFF7DAFFF00200087C
:1001E0000003000841837047018370477047000097
:1001F0002DE9F047D1F8008000234FF0010C4FF0BB
:10020000030E002407E000BF0134102C03F10203A9
:1002100008BFBDE8F0870CFA04FA18EA0A0FF3D019
:1002200007680EFA03F6B74307600F7991F8079055
:10023000026807FA03F52A430260C26809FA03F567
:10024000B243C260C2682A437D1E012DC260DBD862
:100250008268F5432A4082604A798D7986689A409F
:10026000324382604268A54022EA0A024260426844
:100270002A434260C8E7000082B043F63000C4F26F
:100280000200016841F2004441F020010160402079
:1002900000900120C4F202046D46ADF804008DF810
:1002A000070020462946FFF7A3FF20464021FFF71D
:1002B00099FF20464021FFF797FF802000902046BD
:1002C0002946FFF795FF20468021FFF78BFF00BFEF
:1002D000FEE702E008C8121F08C1002AFAD17047E1
:1002E0007047002001E001C1121F002AFBD17047B6
:1002F000000300080000002000040000E2020008E3
:040000050800019D51
:00000001FF
