:1000000002080075900FAF90EF640F605012009BD4
:1000100075900FAF90EF24F5601024FE601114600E
:100020001324077012E4F508800D75080180087527
:10003000080280037508037590F0AF90EF245060BC
:100040000C24E0600C24F0600C2470801374048095
:100050000674088002740C2508F50880037508FFF3
:10006000AF08227FFF120003D2A4C2A3D2A2EFFDE9
:100070003395E0FCEDF47002ECF460E974092FF8BC
:10008000E6F58080E00108FF10093F065B4F666DD2
:100090007D077F6F777C395E7971007FE87E03EFA3
:0A00A0001FAC0670011E4C70F62222
:10080000787FE4F6D8FD758118020847020063E49A
:1008100093A3F8E493A34003F68001F208DFF48089
:1008200029E493A3F85407240CC8C333C4540F44D9
:1008300020C8834004F456800146F6DFE4800B01B3
:1008400002040810204080900085E47E019360BC83
:10085000A3FF543F30E509541FFEE493A360010E4B
:10086000CF54C025E060A840B8E493A3FAE493A372
:10087000F8E493A3C8C582C8CAC583CAF0A3C8C593
:0C08800082C8CAC583CADFE9DEE780BE7B
:00000001FF
