:10000000020800AD07E4FBEBC394087480948050B1
:100010001CEDC4131313540124FF92B4ED25E0FD2D
:10002000C2B612007BD2B612007B0B80DAC2B512C8
:10003000007BD2B522E4F580E4F9E9C3940874802A
:10004000948050F4E4FF120003740829F8E6FF12CC
:1000500000037FF47E0112005C0980DEE4FDFCC336
:10006000ED9FEC9E50147B6E7A00EB1B70011AEB37
:100070004A70F70DBD00010C80E5227F017E00EF84
:100080001FAC0670011E4C70F6220808010204081D
:0500900010204080007B
:10080000787FE4F6D8FD75810F020847020035E4D1
:1008100093A3F8E493A34003F68001F208DFF48089
:1008200029E493A3F85407240CC8C333C4540F44D9
:1008300020C8834004F456800146F6DFE4800B01B3
:100840000204081020408090008AE47E019360BC7E
:10085000A3FF543F30E509541FFEE493A360010E4B
:10086000CF54C025E060A840B8E493A3FAE493A372
:10087000F8E493A3C8C582C8CAC583CAF0A3C8C593
:0C08800082C8CAC583CADFE9DEE780BE7B
:00000001FF
