:10000000020800EF6003750801E5086401702E30F6
:10001000B10930B00630B20320B3227FE87E03126C
:100020000174E4F50820B1037F012220B0037F02B0
:100030002220B2037F032230B3127F042230B10C9E
:1000400030B00930B20630B3037508017F002212C8
:100050000088E5116031E4F513F514C3E514940844
:10006000E5136480948050EA74092514F8E6F5904D
:10007000AF127E0012012BE4F5901200880514E502
:100080001470D8051380D422E4FF1200038F15EFFB
:100090006401700312019CE5156402700312014AA9
:1000A000E51564037003120158E51564047003122A
:1000B000017F22BB010689828A83E0225002E72267
:1000C000BBFE02E32289828A83E49322BB01068974
:1000D000828A83F0225002F722BBFE01F322E4FE63
:1000E0007D07EEC39D501D74092EF9E4FAFBC00193
:1000F00074092DF9E4F519F51A891BD001120105CF
:100100000E1D80DE228B168A1789181200B3FFABF2
:1001100019AA1AA91B1200B3AB16AA17A918120024
:10012000CCAB19AA1AA91BEF0200CCE4FDFCC3ED6D
:100130009FEC9E50147B6E7A00EB1B70011AEB4A09
:1001400070F70DBD00010C80E522D3E51294017417
:100150008094804002151222C3E5129405748094A5
:10016000805002051222080901030206040C080946
:1001700001080100EF1FAC0670011E4C70F622E56D
:10018000117F0070027F018F1122E4F5907512013A
:0F0190007511012212018A12004F80FB0200DE5E
:10080000787FE4F6D8FD75811B020847020194E465
:1008100093A3F8E493A34003F68001F208DFF48089
:1008200029E493A3F85407240CC8C333C4540F44D9
:1008300020C8834004F456800146F6DFE4800B01B3
:1008400002040810204080900166E47E019360BCA1
:10085000A3FF543F30E509541FFEE493A360010E4B
:10086000CF54C025E060A840B8E493A3FAE493A372
:10087000F8E493A3C8C582C8CAC583CAF0A3C8C593
:0C08800082C8CAC583CADFE9DEE780BE7B
:00000001FF
