:10000000020800E4FBFA74082BF8E6F5807FE07E36
:1000100093120038E4F5800BBB00010AEB64114A2F
:1000200070E480DF11083F065B4F666D7D077F6FD0
:10003000777C395E79710000EF1FAC0670011E4CB1
:0300400070F62235
:10080000787FE4F6D8FD758118020847020003E4FA
:1008100093A3F8E493A34003F68001F208DFF48089
:1008200029E493A3F85407240CC8C333C4540F44D9
:1008300020C8834004F456800146F6DFE4800B01B3
:1008400002040810204080900024E47E019360BCE4
:10085000A3FF543F30E509541FFEE493A360010E4B
:10086000CF54C025E060A840B8E493A3FAE493A372
:10087000F8E493A3C8C582C8CAC583CAF0A3C8C593
:0C08800082C8CAC583CADFE9DEE780BE7B
:00000001FF
