:100BA5008F278D28120BCE7FA0120B09120BF2AFE7
:100BB50027120B09120BF2AF28120B09120BF212B6
:090BC5000C337F0A7E00020C14BF
:020B7A008F1DCD
:100B7C00E4F51E120BCE120BF2AF1D120B09120B69
:100B8C00F2120BCE7FA1120B09120BF2E4FF120B27
:080B9C00448F1E120C33AF1E42
:010BA400222E
:100BCE00D2A07F017E00120C92D2A17F017E001274
:100BDE000C92C2A07F017E00120C92C2A17F017EF8
:040BEE0000020C9263
:100C3300C2A07F017E00120C92D2A17F017E00121E
:0B0C43000C92D2A07F017E00020C92F8
:020B09008F1F3C
:100B0B00C2A1E4F520E51F30E704D2A08002C2A009
:100B1B00E51F25E0F51F7F017E00120C92D2A17F0D
:100B2B00017E00120C92C2A17F017E00120C920575
:080B3B0020E520C3940840CD21
:010B4300228F
:020B44008F1F01
:100B4600E4F520C2A17F017E00120C92D2A1E5211C
:100B560025E0F52130A00205217F017E00120C92CE
:100B66000520E520C3940840DAE51F7003020C65F2
:030B7600120C4E10
:010B79002259
:100BF200E4F51FC2A17F01FE120C9230A00F051F67
:100C0200E51FD3946440F4120C337F0122C2A17F0A
:010C120000E1
:010C130022BE
:100C4E00C2A1C2A07F017E00120C92D2A17F017EB2
:070C5E0000120C92C2A1225A
:100C6500C2A1C2A07F017E00120C92D2A17F017E9B
:070C750000120C92C2A12243
:030C7C000129014A
:100ABD00EF6003752901E5296401703D30B10930FE
:100ACD00B00630B20320B3317FE87E03120C92E4FE
:100ADD00F52920B1037F012220B0037F022220B22D
:100AED00037F032220B3037F042230B10C30B00901
:0B0AFD0030B20630B3037529017F0002
:010B080022CA
:100C7F0010083F065B4F666D7D077F6F777C395E8F
:020C8F00797179
:060923008B228A238924C7
:10092900E4F525ED14F526E4F525E525C3952650CE
:100939007BE525B408005049900948F82828730236
:10094900096002096402096802096C020974020952
:100959007C020984020984D2A48012D2A48016D20E
:10096900A4801AD2A4C2A3C2A28016C2A4D2A3D2BE
:10097900A2800EC2A4D2A3C2A28006C2A4C2A3D2DC
:10098900A2C3E5259526FFE49400AB22AA23A92456
:100999008F82F5831208F62408F8E6F5807F647ED5
:0C09A90000120C92E4F5800525020933D1
:0109B500221F
:0B0C9200EF1FAC0670011E4C70F62234
:100C1400E4FDFCC3ED9FEC9E50147B6E7A00EB1B4D
:0E0C240070011AEB4A70F70DBD00010C80E55F
:010C3200229F
:030C9D0000000054
:100A4200E4F518F519781A7C00FD7BFF7A0C799D84
:100A5200FE7F031208D0E4FF120ABD8F18E518B416
:100A62000107AD19E4FF120000E518B40207E4FF24
:100A7200120B7A8F19E518B4030D0519E4B519079D
:100A8200E4B401037519FFE518B40403E4F519E5AC
:100A92001975F06484F51AE51975F06484AFF0EF06
:100AA20075F00A84F51BEF75F00A8485F01C7B0053
:0B0AB2007A00791A7D06120000809B7C
:030000000209B63C
:0C09B600787FE4F6D8FD7581290209FD68
:10080000E709F608DFFA8046E709F208DFFA803EDA
:1008100088828C83E709F0A3DFFA8032E309F608C7
:10082000DFFA8078E309F208DFFA807088828C832F
:10083000E309F0A3DFFA806489828A83E0A3F608E3
:10084000DFFA805889828A83E0A3F208DFFA804CBD
:1008500080D280FA80C680D4806980F28033801094
:1008600080A680EA809A80A880DA80E280CA8033FD
:1008700089828A83ECFAE493A3C8C582C8CCC58375
:10088000CCF0A3C8C582C8CCC583CCDFE9DEE78045
:100890000D89828A83E493A3F608DFF9ECFAA9F0C4
:1008A000EDFB2289828A83ECFAE0A3C8C582C8CC1A
:1008B000C583CCF0A3C8C582C8CCC583CCDFEADE33
:1008C000E880DB89828A83E493A3F208DFF980CC95
:1008D00088F0EF60010E4E60C388F0ED2402B4048E
:1008E0000050B9F582EB2402B4040050AF23234535
:0608F00082239008507302
:1008F600BB010CE58229F582E5833AF583E02250B7
:1009060006E92582F8E622BBFE06E92582F8E22200
:0D091600E58229F582E5833AF583E493221A
:1009C200020A42E493A3F8E493A34003F68001F2FF
:1009D20008DFF48029E493A3F85407240CC8C33336
:1009E200C4540F4420C8834004F456800146F6DF05
:1009F200E4800B0102040810204080900C7CE47E0D
:100A0200019360BCA3FF543F30E509541FFEE493F9
:100A1200A360010ECF54C025E060A840B8E493A3C0
:100A2200FAE493A3F8E493A3C8C582C8CAC583CAEB
:100A3200F0A3C8C582C8CAC583CADFE9DEE780BEA3
:010C91000062
:00000001FF
