:10000000020D4AE4F508F50CF50BF50AF509F510B3
:10001000F50FF50EF50D1204640508E50875F032CC
:1000200084E5F0701912027F7B007A40791C7846D3
:100030001208001209448F0C8E0B8D0A8C09AF0C2C
:10004000AE0BAD0AAC09EC3350101209F28F0C8ED6
:100050000B8D0A8C097511408003E4F5117B407A01
:1000600042790F7800AF0CAE0BAD0AAC09120393C6
:1000700074232FF8E6F5127B407A42790F7800AFAF
:100080000CAE0BAD0AAC09120393AC00AD01AE028D
:10009000AF037BA07A867901780012039374232F33
:1000A000F8E6F5137B407A42790F7800AF0CAE0B7F
:1000B000AD0AAC09120393AC00AD01AE02AF037BF5
:1000C000A07A8679017800120393AC00AD01AE02EC
:1000D000AF03E47B107A27F9F812039374232FF807
:1000E000E64480F5147B407A42790F7800AF0CAE7D
:1000F0000BAD0AAC09120393AC00AD01AE02AF0325
:100100007BA07A8679017800120393AC00AD01AE32
:1001100002AF03E47B107A27F9F8120393AC00AD29
:1001200001AE02AF038F108E0F8D0E8C0DE47BE8B5
:100130007A03F9F812039374232FF8E6F515E47B9C
:10014000E87A03F9F8AF10AE0FAD0EAC0D120393C1
:10015000AC00AD01AE02AF03E47B64FAF9F8120320
:100160009374232FF8E6F516E47BE87A03F9F8AFE9
:1001700010AE0FAD0EAC0D120393AC00AD01AE028C
:10018000AF03E47B64FAF9F8120393AC00AD01AE5F
:1001900002AF03E47B0AFAF9F812039374232FF8F1
:1001A000E6F517E47BE87A03F9F8AF10AE0FAD0E71
:1001B000AC0D120393AC00AD01AE02AF03E47B645F
:1001C000FAF9F8120393AC00AD01AE02AF03E47B81
:1001D0000AFAF9F812039374232BF8E6F5187B005A
:1001E0007A0079117D011201EC0200198B198A1A2B
:1001F000891BED14F51CF51DC3E51D94087480944E
:1002000080507BE51DB40800504D900211F828285D
:100210007302022902022D02023102023502023962
:10022000020241020249020251D2A4800ED2A480ED
:1002300012D2A48016D2A4801AC2A4D2A3D2A280C1
:1002400016C2A4D2A3C2A2800EC2A4C2A3D2A2800C
:1002500006C2A4C2A3C2A2C3E51D951CFFE494007C
:10026000AB19AA1AA91B8F82F5831209C5F5807FE5
:10027000647E00120459E4F580051D0201F822E4B1
:10028000F51DF51EF51FFF1204491204371202FA7C
:100290007FCC12034E7FBE12034E1203D78F1F1264
:1002A00003D7EFFE7C00E4251FF51EEC3EF51D5440
:1002B000F8FEEEB4F821E51EF4FFE51DF4FEEF2490
:1002C00001F51EE43EF51DFCAD1EE412090BE4FB36
:1002D000FA798078BD800FAC1DAD1EE412090BE4E5
:1002E000FBFA7980783D1208008F1C8E1B8D1A8CCA
:1002F00019AF1CAE1BAD1AAC1922E4F52030B714AF
:10030000C3E520941474809480500905207F017EF9
:1003100000120459C3E52094147480948040037F34
:100320000122E4F52020B716C3E5209414748094CC
:1003300080500B05207F017E0012045980E7C3E541
:10034000209414748094807F0040027F01228F20CB
:10035000E4F521F522F521C3E52194087480948009
:100360005030E5205401F522E520C313F520E522A5
:10037000600FC2B70000D2B77F067E00120459801A
:100380000DC2B77F067E00120459D2B700000521C6
:1003900080C522C2D5E830E70FB2D5E4C39BFBE4A9
:1003A0009AFAE499F9E498F8EC30E717B2D5120319
:1003B000C9120A3CE4C39BFBE49AFAE499F9E49875
:1003C000F88003120A3C30D50DE4C39FFFE49EFE83
:1003D000E49DFDE49CFC22E4F520FFF521F521E5F8
:1003E00021C39408748094805016120403EFC43320
:1003F00033335480FEE520C3134EF520052180DF02
:10040000AF2022E4F522C2B70000D2B7000030B717
:10041000057522018003E4F5227F057E0012045950
:10042000AF222211233F065B4F666D7D077F6F77FA
:100430007C395E79710000C2B77F4B7E001204598F
:10044000D2B77F027E000204591204371202FA7FEB
:10045000CC12034E7F4402034EEF1FAC0670011E08
:0A0460004C70F6221204370202FA73
:10080000EC4D6011E8497017ED33EC3304600DE4F2
:10081000FCFFFEFD22E933E8330470F80209B01250
:10082000097B58046009E4CC248150062850090251
:1008300009BA2840030209B7C0E0EB4A7044B98006
:1008400006D0E0FB0209A6EF4E701CBD8008EBFF4E
:10085000EAFEE9FD80EBE98DF0A4FEE5F00208E98F
:10086000E9CDF9EAFEEBFFEF89F0A4FCE5F0CE89D3
:10087000F0A42EFFE435F0CD89F0A42DFEE435F090
:100880008067EF4E7005BD80D780C3EF8BF0A4ACBE
:10089000F0EE8BF0A42CFCE435F0F8EF8AF0A42CF9
:1008A000E5F038FCE433CB8DF0A42CFCE5F03BF80C
:1008B000EE8AF0A42CFCE5F038F8E433CF89F0A4FC
:1008C0002CFCE5F038CF3400CE89F0A42FFFE5F002
:1008D0003EFEE433C98DF0A42EFEE5F039CD8AF05A
:1008E000A42FFFE5F03EFEE43DFD33D0E0FB5007D2
:1008F0000BBB000F0209BAEC2CFCEF33FFEE33FE0A
:10090000ED33FD02099275F020800E75F010800520
:1009100075F0087D007E007F003392D530D503123C
:1009200009F2EC334010EF33FFEE33FEED33FDEC14
:1009300033FCD5F0ED22E5F0247EA2D513CC92E76E
:10094000CDCEFF22EDD2E7CD33EC3392D5248140DA
:1009500006E4FFFEFDFC22FCE4CFCECDCC24E0502B
:100960001174FF80EDC3CC13CCCD13CDCE13CECFFD
:1009700013CF0470F030D5DE0209F2E9D2E7C933B3
:10098000E833F892D5EDD2E7CD33EC33FC5002B228
:10099000D522EC30E7100FBF000C0EBE00080DBDD5
:1009A00000040BEB6014A2D5EB13FCED92E7FD22E3
:1009B00074FFFCFDFEFF22E480F8A2D574FF13FC57
:1009C0007D80E480EFBB010CE58229F582E5833A66
:1009D000F583E0225006E92582F8E622BBFE06E90F
:1009E0002582F8E222E58229F582E5833AF583E45F
:1009F0009322C3E49FFFE49EFEE49DFDE49CFC2261
:100A000075F008758200EF2FFFEE33FECD33CDCCAD
:100A100033CCC58233C5829BED9AEC99E582984030
:100A20000CF582EE9BFEED9AFDEC99FC0FD5F0D60D
:100A3000E4CEFBE4CDFAE4CCF9A88222B800C1B937
:100A40000059BA002DEC8BF084CFCECDFCE5F0CB75
:100A5000F97818EF2FFFEE33FEED33FDEC33FCEBAE
:100A600033FB10D703994004EB99FB0FD8E5E4F969
:100A7000FA227818EF2FFFEE33FEED33FDEC33FC56
:100A8000C933C910D7059BE99A4007EC9BFCE99A4A
:100A9000F90FD8E0E4C9FAE4CCFB2275F010EF2F8F
:100AA000FFEE33FEED33FDCC33CCC833C810D7078F
:100AB0009BEC9AE899400AED9BFDEC9AFCE899F8CA
:0E0AC0000FD5F0DAE4CDFBE4CCFAE4C8F9225D
:100D4A00787FE4F6D8FD758133020D91020003E441
:100D5A0093A3F8E493A34003F68001F208DFF4803A
:100D6A0029E493A3F85407240CC8C333C4540F448A
:100D7A0020C8834004F456800146F6DFE4800B0164
:100D8A0002040810204080900423E47E019360BC92
:100D9A00A3FF543F30E509541FFEE493A360010EFC
:100DAA00CF54C025E060A840B8E493A3FAE493A323
:100DBA00F8E493A3C8C582C8CAC583CAF0A3C8C544
:0C0DCA0082C8CAC583CADFE9DEE780BE2C
:00000001FF
